:0100000000FF
:0100010000FE
:0100020000FD
:0100030000FC
:0100040000FB
:0100050000FA
:0100060000F9
:0100070000F8
:0100080004F3
:0100090004F2
:01000A0004F1
:01000B0004F0
:01000C0004EF
:01000D0004EE
:01000E0004ED
:01000F0004EC
:0100100004EB
:0100110004EA
:0100120004E9
:0100130004E8
:0100140004E7
:0100150004E6
:0100160004E5
:0100170004E4
:0100180006E1
:0100190007DF
:01001A0007DE
:01001B0006DE
:01001C0006DD
:01001D0006DC
:01001E0006DB
:01001F0006DA
:0100200006D9
:0100210006D8
:0100220006D7
:0100230007D5
:0100240007D4
:0100250006D4
:0100260006D3
:0100270006D2
:0100280007D0
:0100290007CF
:01002A0007CE
:01002B0007CD
:01002C0007CC
:01002D0007CB
:01002E0007CA
:01002F0007C9
:0100300007C8
:0100310007C7
:0100320007C6
:0100330007C5
:0100340007C4
:0100350007C3
:0100360007C2
:0100370007C1
:0100380007C0
:0100390007BF
:01003A0007BE
:01003B0007BD
:01003C0007BC
:01003D0007BB
:01003E0007BA
:01003F0007B9
:0100400007B8
:0100410007B7
:0100420007B6
:0100430007B5
:0100440007B4
:0100450007B3
:0100460007B2
:0100470007B1
:0100480007B0
:0100490007AF
:01004A0007AE
:01004B0007AD
:01004C0007AC
:01004D0007AB
:01004E0007AA
:01004F0007A9
:0100500007A8
:0100510007A7
:0100520007A6
:0100530007A5
:0100540007A4
:0100550007A3
:0100560007A2
:0100570007A1
:0100580007A0
:0100590000A6
:01005A0000A5
:01005B0000A4
:01005C0000A3
:01005D0000A2
:01005E0000A1
:01005F0000A0
:01006000009F
:01006100009E
:01006200009D
:01006300009C
:01006400009B
:01006500009A
:010066000099
:010067000098
:010068000097
:010069000096
:01006A000095
:01006B000094
:01006C000093
:01006D000092
:01006E000091
:01006F000090
:01007000008F
:01007100008E
:01007200008D
:01007300008C
:01007400008B
:01007500008A
:010076000089
:010077000088
:010078000087
:010079000086
:01007A000085
:01007B000084
:01007C000083
:01007D000082
:01007E000081
:01007F000080
:01008000007F
:01008100007E
:01008200007D
:01008300007C
:01008400007B
:01008500007A
:010086000079
:010087000078
:010088000077
:010089000076
:01008A000075
:01008B000074
:01008C000073
:01008D000072
:01008E000071
:01008F000070
:01009000006F
:01009100006E
:01009200006D
:01009300006C
:01009400006B
:01009500006A
:010096000069
:010097000068
:010098000067
:010099000066
:01009A000065
:01009B000064
:01009C000063
:01009D000062
:01009E000061
:01009F000060
:0100A000005F
:0100A100005E
:0100A200005D
:0100A300005C
:0100A400005B
:0100A500005A
:0100A6000059
:0100A7000058
:0100A8000057
:0100A9000056
:0100AA000055
:0100AB000054
:0100AC000053
:0100AD000052
:0100AE000051
:0100AF000050
:0100B000004F
:0100B100004E
:0100B200004D
:0100B300004C
:0100B400004B
:0100B500004A
:0100B6000049
:0100B7000048
:0100B8000047
:0100B9000046
:0100BA000045
:0100BB000044
:0100BC000043
:0100BD000042
:0100BE000041
:0100BF000040
:0100C000003F
:0100C100003E
:0100C200003D
:0100C300003C
:0100C400003B
:0100C500003A
:0100C6000039
:0100C7000038
:0100C8000037
:0100C9000036
:0100CA000035
:0100CB000034
:0100CC000033
:0100CD000032
:0100CE000031
:0100CF000030
:0100D000002F
:0100D100002E
:0100D200002D
:0100D300002C
:0100D400002B
:0100D500002A
:0100D6000029
:0100D7000028
:0100D8000027
:0100D9000026
:0100DA000025
:0100DB000024
:0100DC000023
:0100DD000022
:0100DE000021
:0100DF000020
:0100E000001F
:0100E100001E
:0100E200001D
:0100E300001C
:0100E400001B
:0100E500001A
:0100E6000019
:0100E7000018
:0100E8000017
:0100E9000016
:0100EA000015
:0100EB000014
:0100EC000013
:0100ED000012
:0100EE000011
:0100EF000010
:0100F000000F
:0100F100000E
:0100F200000D
:0100F300000C
:0100F400000B
:0100F500000A
:0100F6000009
:0100F7000008
:0100F8000007
:0100F9000006
:0100FA000005
:0100FB000004
:0100FC000003
:0100FD000002
:0100FE000001
:0100FF000000
:0101000000FE
:0101010000FD
:0101020000FC
:0101030000FB
:0101040000FA
:0101050000F9
:0101060000F8
:0101070000F7
:0101080000F6
:0101090000F5
:01010A0000F4
:01010B0000F3
:01010C0000F2
:01010D0000F1
:01010E0000F0
:01010F0000EF
:0101100000EE
:0101110000ED
:0101120000EC
:0101130000EB
:0101140000EA
:0101150000E9
:0101160000E8
:0101170000E7
:0101180000E6
:0101190000E5
:01011A0000E4
:01011B0000E3
:01011C0000E2
:01011D0000E1
:01011E0000E0
:01011F0000DF
:0101200000DE
:0101210000DD
:0101220000DC
:0101230000DB
:0101240000DA
:0101250000D9
:0101260000D8
:0101270000D7
:0101280000D6
:0101290000D5
:01012A0000D4
:01012B0000D3
:01012C0000D2
:01012D0000D1
:01012E0000D0
:01012F0000CF
:0101300000CE
:0101310000CD
:0101320000CC
:0101330000CB
:0101340000CA
:0101350000C9
:0101360000C8
:0101370000C7
:0101380000C6
:0101390000C5
:01013A0000C4
:01013B0000C3
:01013C0000C2
:01013D0000C1
:01013E0000C0
:01013F0000BF
:0101400000BE
:0101410000BD
:0101420000BC
:0101430000BB
:0101440000BA
:0101450000B9
:0101460004B4
:0101470004B3
:0101480004B2
:0101490004B1
:01014A0004B0
:01014B0004AF
:01014C0004AE
:01014D0004AD
:01014E0004AC
:01014F0004AB
:0101500004AA
:0101510004A9
:0101520004A8
:0101530004A7
:0101540004A6
:0101550004A5
:0101560004A4
:0101570004A3
:0101580004A2
:01015900069F
:01015A00079D
:01015B00069D
:01015C00069C
:01015D00069B
:01015E00069A
:01015F000699
:010160000698
:010161000697
:010162000696
:010163000695
:010164000793
:010165000693
:010166000692
:010167000691
:01016800078F
:01016900078E
:01016A00078D
:01016B00078C
:01016C00078B
:01016D00078A
:01016E000789
:01016F000788
:010170000787
:010171000786
:010172000785
:010173000784
:010174000783
:010175000782
:010176000781
:010177000780
:01017800077F
:01017900077E
:01017A00077D
:01017B00077C
:01017C00077B
:01017D00077A
:01017E000779
:01017F000778
:010180000777
:010181000776
:010182000775
:010183000774
:010184000773
:010185000772
:010186000771
:010187000770
:01018800076F
:01018900076E
:01018A00076D
:01018B00076C
:01018C00076B
:01018D00076A
:01018E000769
:01018F000768
:010190000767
:010191000766
:010192000765
:010193000764
:010194000763
:010195000762
:010196000761
:010197000760
:01019800075F
:010199000065
:01019A000064
:01019B000063
:01019C000062
:01019D000061
:01019E000060
:01019F00005F
:0101A000005E
:0101A100005D
:0101A200005C
:0101A300005B
:0101A400005A
:0101A5000059
:0101A6000058
:0101A7000057
:0101A8000056
:0101A9000055
:0101AA000054
:0101AB000053
:0101AC000052
:0101AD000051
:0101AE000050
:0101AF00004F
:0101B000004E
:0101B100004D
:0101B200004C
:0101B300004B
:0101B400004A
:0101B5000049
:0101B6000048
:0101B7000047
:0101B8000046
:0101B9000045
:0101BA000044
:0101BB000043
:0101BC000042
:0101BD000041
:0101BE000040
:0101BF00003F
:0101C000003E
:0101C100003D
:0101C200003C
:0101C300003B
:0101C400003A
:0101C5000039
:0101C6000038
:0101C7000037
:0101C8000036
:0101C9000035
:0101CA000034
:0101CB000033
:0101CC000032
:0101CD000031
:0101CE000030
:0101CF00002F
:0101D000002E
:0101D100002D
:0101D200002C
:0101D300002B
:0101D400002A
:0101D5000029
:0101D6000028
:0101D7000027
:0101D8000026
:0101D9000025
:0101DA000024
:0101DB000023
:0101DC000022
:0101DD000021
:0101DE000020
:0101DF00001F
:0101E000001E
:0101E100001D
:0101E200001C
:0101E300001B
:0101E400001A
:0101E5000019
:0101E6000018
:0101E7000017
:0101E8000016
:0101E9000015
:0101EA000014
:0101EB000013
:0101EC000012
:0101ED000011
:0101EE000010
:0101EF00000F
:0101F000000E
:0101F100000D
:0101F200000C
:0101F300000B
:0101F400000A
:0101F5000009
:0101F6000008
:0101F7000007
:0101F8000006
:0101F9000005
:0101FA000004
:0101FB000003
:0101FC000002
:0101FD000001
:0101FE000000
:0101FF0000FF
:0102000000FD
:0102010000FC
:0102020000FB
:0102030000FA
:0102040000F9
:0102050000F8
:0102060000F7
:0102070000F6
:0102080000F5
:0102090000F4
:01020A0000F3
:01020B0000F2
:01020C0000F1
:01020D0000F0
:01020E0000EF
:01020F0000EE
:0102100000ED
:0102110000EC
:0102120000EB
:0102130000EA
:0102140000E9
:0102150000E8
:0102160000E7
:0102170000E6
:0102180000E5
:0102190000E4
:01021A0000E3
:01021B0000E2
:01021C0000E1
:01021D0000E0
:01021E0000DF
:01021F0000DE
:0102200000DD
:0102210000DC
:0102220000DB
:0102230000DA
:0102240000D9
:0102250000D8
:0102260000D7
:0102270000D6
:0102280000D5
:0102290000D4
:01022A0000D3
:01022B0000D2
:01022C0000D1
:01022D0000D0
:01022E0000CF
:01022F0000CE
:0102300000CD
:0102310000CC
:0102320000CB
:0102330000CA
:0102340000C9
:0102350000C8
:0102360000C7
:0102370000C6
:0102380000C5
:0102390000C4
:01023A0000C3
:01023B0000C2
:01023C0000C1
:01023D0000C0
:01023E0000BF
:01023F0000BE
:0102400000BD
:0102410000BC
:0102420000BB
:0102430000BA
:0102440000B9
:0102450000B8
:0102460000B7
:0102470000B6
:0102480000B5
:0102490000B4
:01024A0000B3
:01024B0000B2
:01024C0000B1
:01024D0000B0
:01024E0000AF
:01024F0000AE
:0102500000AD
:0102510000AC
:0102520000AB
:0102530000AA
:0102540000A9
:0102550000A8
:0102560000A7
:0102570000A6
:0102580000A5
:0102590000A4
:01025A0000A3
:01025B0000A2
:01025C0000A1
:01025D0000A0
:01025E00009F
:01025F00009E
:01026000009D
:01026100009C
:01026200009B
:01026300009A
:010264000099
:010265000098
:010266000097
:010267000096
:010268000095
:010269000094
:01026A000093
:01026B000092
:01026C000091
:01026D000090
:01026E00008F
:01026F00008E
:01027000008D
:01027100008C
:01027200008B
:01027300008A
:010274000089
:010275000088
:010276000087
:010277000086
:010278000085
:010279000084
:01027A000083
:01027B000082
:01027C000081
:01027D000080
:01027E00007F
:01027F00007E
:01028000007D
:01028100007C
:01028200007B
:01028300007A
:010284000079
:010285000078
:010286000077
:010287000472
:010288000471
:010289000470
:01028A00046F
:01028B00046E
:01028C00046D
:01028D00046C
:01028E00046B
:01028F00046A
:010290000469
:010291000468
:010292000467
:010293000466
:010294000465
:010295000464
:010296000463
:010297000462
:010298000461
:010299000460
:01029A00065D
:01029B00065C
:01029C00065B
:01029D00065A
:01029E000659
:01029F000658
:0102A0000657
:0102A1000656
:0102A2000655
:0102A3000654
:0102A4000752
:0102A5000652
:0102A6000651
:0102A7000650
:0102A800064F
:0102A900074D
:0102AA00074C
:0102AB00074B
:0102AC00074A
:0102AD000749
:0102AE000748
:0102AF000747
:0102B0000746
:0102B1000745
:0102B2000744
:0102B3000743
:0102B4000742
:0102B5000741
:0102B6000740
:0102B700073F
:0102B800073E
:0102B900073D
:0102BA00073C
:0102BB00073B
:0102BC00073A
:0102BD000739
:0102BE000738
:0102BF000737
:0102C0000736
:0102C1000735
:0102C2000734
:0102C3000733
:0102C4000732
:0102C5000731
:0102C6000730
:0102C700072F
:0102C800072E
:0102C900072D
:0102CA00072C
:0102CB00072B
:0102CC00072A
:0102CD000729
:0102CE000728
:0102CF000727
:0102D0000726
:0102D1000725
:0102D2000724
:0102D3000723
:0102D4000722
:0102D5000721
:0102D6000720
:0102D700071F
:0102D800071E
:0102D9000024
:0102DA000023
:0102DB000022
:0102DC000021
:0102DD000020
:0102DE00001F
:0102DF00001E
:0102E000001D
:0102E100001C
:0102E200001B
:0102E300001A
:0102E4000019
:0102E5000018
:0102E6000017
:0102E7000016
:0102E8000015
:0102E9000014
:0102EA000013
:0102EB000012
:0102EC000011
:0102ED000010
:0102EE00000F
:0102EF00000E
:0102F000000D
:0102F100000C
:0102F200000B
:0102F300000A
:0102F4000009
:0102F5000008
:0102F6000007
:0102F7000006
:0102F8000005
:0102F9000004
:0102FA000003
:0102FB000002
:0102FC000001
:0102FD000000
:0102FE0000FF
:0102FF0000FE
:0103000000FC
:0103010000FB
:0103020000FA
:0103030000F9
:0103040000F8
:0103050000F7
:0103060000F6
:0103070000F5
:0103080000F4
:0103090000F3
:01030A0000F2
:01030B0000F1
:01030C0000F0
:01030D0000EF
:01030E0000EE
:01030F0000ED
:0103100000EC
:0103110000EB
:0103120000EA
:0103130000E9
:0103140000E8
:0103150000E7
:0103160000E6
:0103170000E5
:0103180000E4
:0103190000E3
:01031A0000E2
:01031B0000E1
:01031C0000E0
:01031D0000DF
:01031E0000DE
:01031F0000DD
:0103200000DC
:0103210000DB
:0103220000DA
:0103230000D9
:0103240000D8
:0103250000D7
:0103260000D6
:0103270000D5
:0103280000D4
:0103290000D3
:01032A0000D2
:01032B0000D1
:01032C0000D0
:01032D0000CF
:01032E0000CE
:01032F0000CD
:0103300000CC
:0103310000CB
:0103320000CA
:0103330000C9
:0103340000C8
:0103350000C7
:0103360000C6
:0103370000C5
:0103380000C4
:0103390000C3
:01033A0000C2
:01033B0000C1
:01033C0000C0
:01033D0000BF
:01033E0000BE
:01033F0000BD
:0103400000BC
:0103410000BB
:0103420000BA
:0103430000B9
:0103440000B8
:0103450000B7
:0103460000B6
:0103470000B5
:0103480000B4
:0103490000B3
:01034A0000B2
:01034B0000B1
:01034C0000B0
:01034D0000AF
:01034E0000AE
:01034F0000AD
:0103500000AC
:0103510000AB
:0103520000AA
:0103530000A9
:0103540000A8
:0103550000A7
:0103560000A6
:0103570000A5
:0103580000A4
:0103590000A3
:01035A0000A2
:01035B0000A1
:01035C0000A0
:01035D00009F
:01035E00009E
:01035F00009D
:01036000009C
:01036100009B
:01036200009A
:010363000099
:010364000098
:010365000097
:010366000096
:010367000095
:010368000094
:010369000093
:01036A000092
:01036B000091
:01036C000090
:01036D00008F
:01036E00008E
:01036F00008D
:01037000008C
:01037100008B
:01037200008A
:010373000089
:010374000088
:010375000087
:010376000086
:010377000085
:010378000084
:010379000083
:01037A000082
:01037B000081
:01037C000080
:01037D00007F
:01037E00007E
:01037F00007D
:01038000007C
:01038100007B
:01038200007A
:010383000079
:010384000078
:010385000077
:010386000076
:010387000075
:010388000074
:010389000073
:01038A000072
:01038B000071
:01038C000070
:01038D00006F
:01038E00006E
:01038F00006D
:01039000006C
:01039100006B
:01039200006A
:010393000069
:010394000068
:010395000067
:010396000066
:010397000065
:010398000064
:010399000063
:01039A000062
:01039B000061
:01039C000060
:01039D00005F
:01039E00005E
:01039F00005D
:0103A000005C
:0103A100005B
:0103A200005A
:0103A3000059
:0103A4000058
:0103A5000057
:0103A6000056
:0103A7000055
:0103A8000054
:0103A9000053
:0103AA000052
:0103AB000051
:0103AC000050
:0103AD00004F
:0103AE00004E
:0103AF00004D
:0103B000004C
:0103B100004B
:0103B200004A
:0103B3000049
:0103B4000048
:0103B5000047
:0103B6000046
:0103B7000045
:0103B8000044
:0103B9000043
:0103BA000042
:0103BB000041
:0103BC000040
:0103BD00003F
:0103BE00003E
:0103BF00003D
:0103C000003C
:0103C100003B
:0103C200003A
:0103C3000039
:0103C4000038
:0103C5000037
:0103C6000432
:0103C7000431
:0103C8000430
:0103C900042F
:0103CA00042E
:0103CB00042D
:0103CC00042C
:0103CD00042B
:0103CE00042A
:0103CF000429
:0103D0000428
:0103D1000427
:0103D2000426
:0103D3000425
:0103D4000424
:0103D5000423
:0103D6000422
:0103D7000421
:0103D8000420
:0103D900041F
:0103DA00041E
:0103DB00061B
:0103DC00061A
:0103DD000619
:0103DE000618
:0103DF000617
:0103E0000616
:0103E1000615
:0103E2000614
:0103E3000613
:0103E4000711
:0103E5000611
:0103E6000610
:0103E700060F
:0103E800060E
:0103E900070C
:0103EA00070B
:0103EB00070A
:0103EC000709
:0103ED000708
:0103EE000707
:0103EF000706
:0103F0000705
:0103F1000704
:0103F2000703
:0103F3000702
:0103F4000701
:0103F5000700
:0103F60007FF
:0103F70007FE
:0103F80007FD
:0103F90007FC
:0103FA0007FB
:0103FB0007FA
:0103FC0007F9
:0103FD0007F8
:0103FE0007F7
:0103FF0007F6
:0104000007F4
:0104010007F3
:0104020007F2
:0104030007F1
:0104040007F0
:0104050007EF
:0104060007EE
:0104070007ED
:0104080007EC
:0104090007EB
:01040A0007EA
:01040B0007E9
:01040C0007E8
:01040D0007E7
:01040E0007E6
:01040F0007E5
:0104100007E4
:0104110007E3
:0104120007E2
:0104130007E1
:0104140007E0
:0104150007DF
:0104160007DE
:0104170007DD
:0104180007DC
:0104190000E2
:01041A0000E1
:01041B0000E0
:01041C0000DF
:01041D0000DE
:01041E0000DD
:01041F0000DC
:0104200000DB
:0104210000DA
:0104220000D9
:0104230000D8
:0104240000D7
:0104250000D6
:0104260000D5
:0104270000D4
:0104280000D3
:0104290000D2
:01042A0000D1
:01042B0000D0
:01042C0000CF
:01042D0000CE
:01042E0000CD
:01042F0000CC
:0104300000CB
:0104310000CA
:0104320000C9
:0104330000C8
:0104340000C7
:0104350000C6
:0104360000C5
:0104370000C4
:0104380000C3
:0104390000C2
:01043A0000C1
:01043B0000C0
:01043C0000BF
:01043D0000BE
:01043E0000BD
:01043F0000BC
:0104400000BB
:0104410000BA
:0104420000B9
:0104430000B8
:0104440000B7
:0104450000B6
:0104460000B5
:0104470000B4
:0104480000B3
:0104490000B2
:01044A0000B1
:01044B0000B0
:01044C0000AF
:01044D0000AE
:01044E0000AD
:01044F0000AC
:0104500000AB
:0104510000AA
:0104520000A9
:0104530000A8
:0104540000A7
:0104550000A6
:0104560000A5
:0104570000A4
:0104580000A3
:0104590000A2
:01045A0000A1
:01045B0000A0
:01045C00009F
:01045D00009E
:01045E00009D
:01045F00009C
:01046000009B
:01046100009A
:010462000099
:010463000098
:010464000097
:010465000096
:010466000095
:010467000094
:010468000093
:010469000092
:01046A000091
:01046B000090
:01046C00008F
:01046D00008E
:01046E00008D
:01046F00008C
:01047000008B
:01047100008A
:010472000089
:010473000088
:010474000087
:010475000086
:010476000085
:010477000084
:010478000083
:010479000082
:01047A000081
:01047B000080
:01047C00007F
:01047D00007E
:01047E00007D
:01047F00007C
:01048000007B
:01048100007A
:010482000079
:010483000078
:010484000077
:010485000076
:010486000075
:010487000074
:010488000073
:010489000072
:01048A000071
:01048B000070
:01048C00006F
:01048D00006E
:01048E00006D
:01048F00006C
:01049000006B
:01049100006A
:010492000069
:010493000068
:010494000067
:010495000066
:010496000065
:010497000064
:010498000063
:010499000062
:01049A000061
:01049B000060
:01049C00005F
:01049D00005E
:01049E00005D
:01049F00005C
:0104A000005B
:0104A100005A
:0104A2000059
:0104A3000058
:0104A4000057
:0104A5000056
:0104A6000055
:0104A7000054
:0104A8000053
:0104A9000052
:0104AA000051
:0104AB000050
:0104AC00004F
:0104AD00004E
:0104AE00004D
:0104AF00004C
:0104B000004B
:0104B100004A
:0104B2000049
:0104B3000048
:0104B4000047
:0104B5000046
:0104B6000045
:0104B7000044
:0104B8000043
:0104B9000042
:0104BA000041
:0104BB000040
:0104BC00003F
:0104BD00003E
:0104BE00003D
:0104BF00003C
:0104C000003B
:0104C100003A
:0104C2000039
:0104C3000038
:0104C4000037
:0104C5000036
:0104C6000035
:0104C7000034
:0104C8000033
:0104C9000032
:0104CA000031
:0104CB000030
:0104CC00002F
:0104CD00002E
:0104CE00002D
:0104CF00002C
:0104D000002B
:0104D100002A
:0104D2000029
:0104D3000028
:0104D4000027
:0104D5000026
:0104D6000025
:0104D7000024
:0104D8000023
:0104D9000022
:0104DA000021
:0104DB000020
:0104DC00001F
:0104DD00001E
:0104DE00001D
:0104DF00001C
:0104E000001B
:0104E100001A
:0104E2000019
:0104E3000018
:0104E4000017
:0104E5000016
:0104E6000015
:0104E7000014
:0104E8000013
:0104E9000012
:0104EA000011
:0104EB000010
:0104EC00000F
:0104ED00000E
:0104EE00000D
:0104EF00000C
:0104F000000B
:0104F100000A
:0104F2000009
:0104F3000008
:0104F4000007
:0104F5000006
:0104F6000005
:0104F7000004
:0104F8000003
:0104F9000002
:0104FA000001
:0104FB000000
:0104FC0000FF
:0104FD0000FE
:0104FE0000FD
:0104FF0000FC
:0105000004F6
:0105010000F9
:0105020000F8
:0105030000F7
:0105040000F6
:0105050000F5
:0105060004F0
:0105070004EF
:0105080000F2
:0105090000F1
:01050A0000F0
:01050B0004EB
:01050C0004EA
:01050D0004E9
:01050E0004E8
:01050F0004E7
:0105100004E6
:0105110004E5
:0105120004E4
:0105130004E3
:0105140004E2
:0105150004E1
:0105160004E0
:0105170004DF
:0105180004DE
:0105190004DD
:01051A0004DC
:01051B0006D9
:01051C0006D8
:01051D0006D7
:01051E0006D6
:01051F0006D5
:0105200006D4
:0105210006D3
:0105220006D2
:0105230006D1
:0105240007CF
:0105250007CE
:0105260006CE
:0105270006CD
:0105280006CC
:0105290007CA
:01052A0007C9
:01052B0007C8
:01052C0007C7
:01052D0007C6
:01052E0007C5
:01052F0007C4
:0105300007C3
:0105310007C2
:0105320007C1
:0105330007C0
:0105340007BF
:0105350007BE
:0105360007BD
:0105370007BC
:0105380007BB
:0105390007BA
:01053A0007B9
:01053B0007B8
:01053C0007B7
:01053D0007B6
:01053E0007B5
:01053F0007B4
:0105400007B3
:0105410007B2
:0105420007B1
:0105430007B0
:0105440007AF
:0105450007AE
:0105460007AD
:0105470007AC
:0105480007AB
:0105490007AA
:01054A0007A9
:01054B0007A8
:01054C0007A7
:01054D0007A6
:01054E0007A5
:01054F0007A4
:0105500007A3
:0105510007A2
:0105520007A1
:0105530007A0
:01055400079F
:01055500079E
:01055600079D
:01055700079C
:01055800079B
:0105590000A1
:01055A0000A0
:01055B00009F
:01055C00009E
:01055D00009D
:01055E00009C
:01055F00009B
:01056000009A
:010561000099
:010562000098
:010563000097
:010564000096
:010565000095
:010566000094
:010567000093
:010568000092
:010569000091
:01056A000090
:01056B00008F
:01056C00008E
:01056D00008D
:01056E00008C
:01056F00008B
:01057000008A
:010571000089
:010572000088
:010573000087
:010574000086
:010575000085
:010576000084
:010577000083
:010578000082
:010579000081
:01057A000080
:01057B00007F
:01057C00007E
:01057D00007D
:01057E00007C
:01057F00007B
:01058000007A
:010581000079
:010582000078
:010583000077
:010584000076
:010585000075
:010586000074
:010587000073
:010588000072
:010589000071
:01058A000070
:01058B00006F
:01058C00006E
:01058D00006D
:01058E00006C
:01058F00006B
:01059000006A
:010591000069
:010592000068
:010593000067
:010594000066
:010595000065
:010596000064
:010597000063
:010598000062
:010599000061
:01059A000060
:01059B00005F
:01059C00005E
:01059D00005D
:01059E00005C
:01059F00005B
:0105A000005A
:0105A1000059
:0105A2000058
:0105A3000057
:0105A4000056
:0105A5000055
:0105A6000054
:0105A7000053
:0105A8000052
:0105A9000051
:0105AA000050
:0105AB00004F
:0105AC00004E
:0105AD00004D
:0105AE00004C
:0105AF00004B
:0105B000004A
:0105B1000049
:0105B2000048
:0105B3000047
:0105B4000046
:0105B5000045
:0105B6000044
:0105B7000043
:0105B8000042
:0105B9000041
:0105BA000040
:0105BB00003F
:0105BC00003E
:0105BD00003D
:0105BE00003C
:0105BF00003B
:0105C000003A
:0105C1000039
:0105C2000038
:0105C3000037
:0105C4000036
:0105C5000035
:0105C6000034
:0105C7000033
:0105C8000032
:0105C9000031
:0105CA000030
:0105CB00002F
:0105CC00002E
:0105CD00002D
:0105CE00002C
:0105CF00002B
:0105D000002A
:0105D1000029
:0105D2000028
:0105D3000027
:0105D4000026
:0105D5000025
:0105D6000024
:0105D7000023
:0105D8000022
:0105D9000021
:0105DA000020
:0105DB00001F
:0105DC00001E
:0105DD00001D
:0105DE00001C
:0105DF00001B
:0105E000001A
:0105E1000019
:0105E2000018
:0105E3000017
:0105E4000016
:0105E5000015
:0105E6000014
:0105E7000013
:0105E8000012
:0105E9000011
:0105EA000010
:0105EB00000F
:0105EC00000E
:0105ED00000D
:0105EE00000C
:0105EF00000B
:0105F000000A
:0105F1000009
:0105F2000008
:0105F3000007
:0105F4000006
:0105F5000005
:0105F6000004
:0105F7000003
:0105F8000002
:0105F9000001
:0105FA000000
:0105FB0000FF
:0105FC0000FE
:0105FD0000FD
:0105FE0000FC
:0105FF0000FB
:0106000000F9
:0106010000F8
:0106020000F7
:0106030000F6
:0106040000F5
:0106050000F4
:0106060000F3
:0106070000F2
:0106080000F1
:0106090000F0
:01060A0000EF
:01060B0000EE
:01060C0000ED
:01060D0000EC
:01060E0000EB
:01060F0000EA
:0106100000E9
:0106110000E8
:0106120000E7
:0106130000E6
:0106140000E5
:0106150000E4
:0106160000E3
:0106170000E2
:0106180000E1
:0106190000E0
:01061A0000DF
:01061B0000DE
:01061C0000DD
:01061D0000DC
:01061E0000DB
:01061F0000DA
:0106200000D9
:0106210000D8
:0106220000D7
:0106230000D6
:0106240000D5
:0106250000D4
:0106260000D3
:0106270000D2
:0106280000D1
:0106290000D0
:01062A0000CF
:01062B0000CE
:01062C0000CD
:01062D0000CC
:01062E0000CB
:01062F0000CA
:0106300000C9
:0106310000C8
:0106320000C7
:0106330000C6
:0106340000C5
:0106350000C4
:0106360000C3
:0106370000C2
:0106380000C1
:0106390000C0
:01063A0000BF
:01063B0000BE
:01063C0000BD
:01063D0000BC
:01063E0000BB
:01063F0000BA
:0106400000B9
:0106410000B8
:0106420004B3
:0106430000B6
:0106440000B5
:0106450000B4
:0106460004AF
:0106470004AE
:0106480004AD
:0106490000B0
:01064A0000AF
:01064B0004AA
:01064C0004A9
:01064D0004A8
:01064E0004A7
:01064F0004A6
:0106500004A5
:0106510004A4
:0106520004A3
:0106530004A2
:0106540004A1
:0106550004A0
:01065600049F
:01065700049E
:01065800049D
:01065900049C
:01065A00049B
:01065B00049A
:01065C000697
:01065D000795
:01065E000695
:01065F000694
:010660000693
:010661000692
:010662000691
:010663000690
:01066400068F
:01066500078D
:01066600068D
:01066700068C
:01066800068B
:010669000789
:01066A000788
:01066B000787
:01066C000786
:01066D000785
:01066E000784
:01066F000783
:010670000782
:010671000781
:010672000780
:01067300077F
:01067400077E
:01067500077D
:01067600077C
:01067700077B
:01067800077A
:010679000779
:01067A000778
:01067B000777
:01067C000776
:01067D000775
:01067E000774
:01067F000773
:010680000772
:010681000771
:010682000770
:01068300076F
:01068400076E
:01068500076D
:01068600076C
:01068700076B
:01068800076A
:010689000769
:01068A000768
:01068B000767
:01068C000766
:01068D000765
:01068E000764
:01068F000763
:010690000762
:010691000761
:010692000760
:01069300075F
:01069400075E
:01069500075D
:01069600075C
:01069700075B
:01069800075A
:010699000060
:01069A00005F
:01069B00005E
:01069C00005D
:01069D00005C
:01069E00005B
:01069F00005A
:0106A0000059
:0106A1000058
:0106A2000057
:0106A3000056
:0106A4000055
:0106A5000054
:0106A6000053
:0106A7000052
:0106A8000051
:0106A9000050
:0106AA00004F
:0106AB00004E
:0106AC00004D
:0106AD00004C
:0106AE00004B
:0106AF00004A
:0106B0000049
:0106B1000048
:0106B2000047
:0106B3000046
:0106B4000045
:0106B5000044
:0106B6000043
:0106B7000042
:0106B8000041
:0106B9000040
:0106BA00003F
:0106BB00003E
:0106BC00003D
:0106BD00003C
:0106BE00003B
:0106BF00003A
:0106C0000039
:0106C1000038
:0106C2000037
:0106C3000036
:0106C4000035
:0106C5000034
:0106C6000033
:0106C7000032
:0106C8000031
:0106C9000030
:0106CA00002F
:0106CB00002E
:0106CC00002D
:0106CD00002C
:0106CE00002B
:0106CF00002A
:0106D0000029
:0106D1000028
:0106D2000027
:0106D3000026
:0106D4000025
:0106D5000024
:0106D6000023
:0106D7000022
:0106D8000021
:0106D9000020
:0106DA00001F
:0106DB00001E
:0106DC00001D
:0106DD00001C
:0106DE00001B
:0106DF00001A
:0106E0000019
:0106E1000018
:0106E2000017
:0106E3000016
:0106E4000015
:0106E5000014
:0106E6000013
:0106E7000012
:0106E8000011
:0106E9000010
:0106EA00000F
:0106EB00000E
:0106EC00000D
:0106ED00000C
:0106EE00000B
:0106EF00000A
:0106F0000009
:0106F1000008
:0106F2000007
:0106F3000006
:0106F4000005
:0106F5000004
:0106F6000003
:0106F7000002
:0106F8000001
:0106F9000000
:0106FA0000FF
:0106FB0000FE
:0106FC0000FD
:0106FD0000FC
:0106FE0000FB
:0106FF0000FA
:0107000000F8
:0107010000F7
:0107020000F6
:0107030000F5
:0107040000F4
:0107050000F3
:0107060000F2
:0107070000F1
:0107080000F0
:0107090000EF
:01070A0000EE
:01070B0000ED
:01070C0000EC
:01070D0000EB
:01070E0000EA
:01070F0000E9
:0107100000E8
:0107110000E7
:0107120000E6
:0107130000E5
:0107140000E4
:0107150000E3
:0107160000E2
:0107170000E1
:0107180000E0
:0107190000DF
:01071A0000DE
:01071B0000DD
:01071C0000DC
:01071D0000DB
:01071E0000DA
:01071F0000D9
:0107200000D8
:0107210000D7
:0107220000D6
:0107230000D5
:0107240000D4
:0107250000D3
:0107260000D2
:0107270000D1
:0107280000D0
:0107290000CF
:01072A0000CE
:01072B0000CD
:01072C0000CC
:01072D0000CB
:01072E0000CA
:01072F0000C9
:0107300000C8
:0107310000C7
:0107320000C6
:0107330000C5
:0107340000C4
:0107350000C3
:0107360000C2
:0107370000C1
:0107380000C0
:0107390000BF
:01073A0000BE
:01073B0000BD
:01073C0000BC
:01073D0000BB
:01073E0000BA
:01073F0000B9
:0107400000B8
:0107410000B7
:0107420000B6
:0107430000B5
:0107440000B4
:0107450000B3
:0107460000B2
:0107470000B1
:0107480000B0
:0107490000AF
:01074A0000AE
:01074B0000AD
:01074C0000AC
:01074D0000AB
:01074E0000AA
:01074F0000A9
:0107500000A8
:0107510000A7
:0107520000A6
:0107530000A5
:0107540000A4
:0107550000A3
:0107560000A2
:0107570000A1
:0107580000A0
:01075900009F
:01075A00009E
:01075B00009D
:01075C00009C
:01075D00009B
:01075E00009A
:01075F000099
:010760000098
:010761000097
:010762000096
:010763000095
:010764000094
:010765000093
:010766000092
:010767000091
:010768000090
:01076900008F
:01076A00008E
:01076B00008D
:01076C00008C
:01076D00008B
:01076E00008A
:01076F000089
:010770000088
:010771000087
:010772000086
:010773000085
:010774000084
:010775000083
:010776000082
:010777000081
:010778000080
:01077900007F
:01077A00007E
:01077B00007D
:01077C00007C
:01077D00007B
:01077E00007A
:01077F000079
:010780000078
:010781000077
:010782000076
:010783000471
:010784000074
:010785000073
:01078600046E
:01078700046D
:01078800046C
:01078900006F
:01078A00006E
:01078B00006D
:01078C000468
:01078D000467
:01078E000466
:01078F000465
:010790000464
:010791000463
:010792000462
:010793000461
:010794000460
:01079500045F
:01079600045E
:01079700045D
:01079800045C
:01079900045B
:01079A00045A
:01079B000459
:01079C000656
:01079D000754
:01079E000654
:01079F000653
:0107A0000652
:0107A1000651
:0107A2000650
:0107A300064F
:0107A400064E
:0107A500074C
:0107A600064C
:0107A700064B
:0107A800064A
:0107A9000748
:0107AA000747
:0107AB000746
:0107AC000745
:0107AD000744
:0107AE000743
:0107AF000742
:0107B0000741
:0107B1000740
:0107B200073F
:0107B300073E
:0107B400073D
:0107B500073C
:0107B600073B
:0107B700073A
:0107B8000739
:0107B9000738
:0107BA000737
:0107BB000736
:0107BC000735
:0107BD000734
:0107BE000733
:0107BF000732
:0107C0000731
:0107C1000730
:0107C200072F
:0107C300072E
:0107C400072D
:0107C500072C
:0107C600072B
:0107C700072A
:0107C8000729
:0107C9000728
:0107CA000727
:0107CB000726
:0107CC000725
:0107CD000724
:0107CE000723
:0107CF000722
:0107D0000721
:0107D1000720
:0107D200071F
:0107D300071E
:0107D400071D
:0107D500071C
:0107D600071B
:0107D700071A
:0107D800061A
:0107D900001F
:0107DA00001E
:0107DB00001D
:0107DC00001C
:0107DD00001B
:0107DE00001A
:0107DF000019
:0107E0000018
:0107E1000017
:0107E2000016
:0107E3000015
:0107E4000014
:0107E5000013
:0107E6000012
:0107E7000011
:0107E8000010
:0107E900000F
:0107EA00000E
:0107EB00000D
:0107EC00000C
:0107ED00000B
:0107EE00000A
:0107EF000009
:0107F0000008
:0107F1000007
:0107F2000006
:0107F3000005
:0107F4000004
:0107F5000003
:0107F6000002
:0107F7000001
:0107F8000000
:0107F90000FF
:0107FA0000FE
:0107FB0000FD
:0107FC0000FC
:0107FD0000FB
:0107FE0000FA
:0107FF0000F9
:0108000000F7
:0108010000F6
:0108020000F5
:0108030000F4
:0108040000F3
:0108050000F2
:0108060000F1
:0108070000F0
:0108080000EF
:0108090000EE
:01080A0000ED
:01080B0000EC
:01080C0000EB
:01080D0000EA
:01080E0000E9
:01080F0000E8
:0108100000E7
:0108110000E6
:0108120000E5
:0108130000E4
:0108140000E3
:0108150000E2
:0108160000E1
:0108170000E0
:0108180000DF
:0108190000DE
:01081A0000DD
:01081B0000DC
:01081C0000DB
:01081D0000DA
:01081E0000D9
:01081F0000D8
:0108200000D7
:0108210000D6
:0108220000D5
:0108230000D4
:0108240000D3
:0108250000D2
:0108260000D1
:0108270000D0
:0108280000CF
:0108290000CE
:01082A0000CD
:01082B0000CC
:01082C0000CB
:01082D0000CA
:01082E0000C9
:01082F0000C8
:0108300000C7
:0108310000C6
:0108320000C5
:0108330000C4
:0108340000C3
:0108350000C2
:0108360000C1
:0108370000C0
:0108380000BF
:0108390000BE
:01083A0000BD
:01083B0000BC
:01083C0000BB
:01083D0000BA
:01083E0000B9
:01083F0000B8
:0108400000B7
:0108410000B6
:0108420000B5
:0108430000B4
:0108440000B3
:0108450000B2
:0108460000B1
:0108470000B0
:0108480000AF
:0108490000AE
:01084A0000AD
:01084B0000AC
:01084C0000AB
:01084D0000AA
:01084E0000A9
:01084F0000A8
:0108500000A7
:0108510000A6
:0108520000A5
:0108530000A4
:0108540000A3
:0108550000A2
:0108560000A1
:0108570000A0
:01085800009F
:01085900009E
:01085A00009D
:01085B00009C
:01085C00009B
:01085D00009A
:01085E000099
:01085F000098
:010860000097
:010861000096
:010862000095
:010863000094
:010864000093
:010865000092
:010866000091
:010867000090
:01086800008F
:01086900008E
:01086A00008D
:01086B00008C
:01086C00008B
:01086D00008A
:01086E000089
:01086F000088
:010870000087
:010871000086
:010872000085
:010873000084
:010874000083
:010875000082
:010876000081
:010877000080
:01087800007F
:01087900007E
:01087A00007D
:01087B00007C
:01087C00007B
:01087D00007A
:01087E000079
:01087F000078
:010880000077
:010881000076
:010882000075
:010883000074
:010884000073
:010885000072
:010886000071
:010887000070
:01088800006F
:01088900006E
:01088A00006D
:01088B00006C
:01088C00006B
:01088D00006A
:01088E000069
:01088F000068
:010890000067
:010891000066
:010892000065
:010893000064
:010894000063
:010895000062
:010896000061
:010897000060
:01089800005F
:01089900005E
:01089A00005D
:01089B00005C
:01089C00005B
:01089D00005A
:01089E000059
:01089F000058
:0108A0000057
:0108A1000056
:0108A2000055
:0108A3000054
:0108A4000053
:0108A5000052
:0108A6000051
:0108A7000050
:0108A800004F
:0108A900004E
:0108AA00004D
:0108AB00004C
:0108AC00004B
:0108AD00004A
:0108AE000049
:0108AF000048
:0108B0000047
:0108B1000046
:0108B2000045
:0108B3000044
:0108B4000043
:0108B5000042
:0108B6000041
:0108B7000040
:0108B800003F
:0108B900003E
:0108BA00003D
:0108BB00003C
:0108BC00003B
:0108BD00003A
:0108BE000039
:0108BF000038
:0108C0000433
:0108C1000036
:0108C2000035
:0108C3000034
:0108C4000033
:0108C500042E
:0108C600042D
:0108C700042C
:0108C800042B
:0108C900002E
:0108CA00002D
:0108CB00002C
:0108CC000427
:0108CD000426
:0108CE000425
:0108CF000424
:0108D0000423
:0108D1000422
:0108D2000421
:0108D3000420
:0108D400041F
:0108D500041E
:0108D600041D
:0108D700041C
:0108D800041B
:0108D900041A
:0108DA000419
:0108DB000418
:0108DC000615
:0108DD000614
:0108DE000613
:0108DF000612
:0108E0000611
:0108E1000610
:0108E200060F
:0108E300060E
:0108E400060D
:0108E500070B
:0108E600060B
:0108E700060A
:0108E8000609
:0108E9000707
:0108EA000706
:0108EB000705
:0108EC000704
:0108ED000604
:0108EE000603
:0108EF000701
:0108F0000700
:0108F10007FF
:0108F20007FE
:0108F30007FD
:0108F40007FC
:0108F50007FB
:0108F60007FA
:0108F70007F9
:0108F80007F8
:0108F90007F7
:0108FA0007F6
:0108FB0007F5
:0108FC0007F4
:0108FD0007F3
:0108FE0007F2
:0108FF0007F1
:0109000007EF
:0109010007EE
:0109020007ED
:0109030007EC
:0109040007EB
:0109050007EA
:0109060007E9
:0109070007E8
:0109080007E7
:0109090007E6
:01090A0007E5
:01090B0007E4
:01090C0007E3
:01090D0007E2
:01090E0007E1
:01090F0007E0
:0109100007DF
:0109110007DE
:0109120007DD
:0109130007DC
:0109140007DB
:0109150007DA
:0109160007D9
:0109170007D8
:0109180004DA
:0109190000DD
:01091A0000DC
:01091B0000DB
:01091C0000DA
:01091D0000D9
:01091E0000D8
:01091F0000D7
:0109200000D6
:0109210000D5
:0109220000D4
:0109230000D3
:0109240000D2
:0109250000D1
:0109260000D0
:0109270000CF
:0109280000CE
:0109290000CD
:01092A0000CC
:01092B0000CB
:01092C0000CA
:01092D0000C9
:01092E0000C8
:01092F0000C7
:0109300000C6
:0109310000C5
:0109320000C4
:0109330000C3
:0109340000C2
:0109350000C1
:0109360000C0
:0109370000BF
:0109380000BE
:0109390000BD
:01093A0000BC
:01093B0000BB
:01093C0000BA
:01093D0000B9
:01093E0000B8
:01093F0000B7
:0109400000B6
:0109410000B5
:0109420000B4
:0109430000B3
:0109440000B2
:0109450000B1
:0109460000B0
:0109470000AF
:0109480000AE
:0109490000AD
:01094A0000AC
:01094B0000AB
:01094C0000AA
:01094D0000A9
:01094E0000A8
:01094F0000A7
:0109500000A6
:0109510000A5
:0109520000A4
:0109530000A3
:0109540000A2
:0109550000A1
:0109560000A0
:01095700009F
:01095800009E
:01095900009D
:01095A00009C
:01095B00009B
:01095C00009A
:01095D000099
:01095E000098
:01095F000097
:010960000096
:010961000095
:010962000094
:010963000093
:010964000092
:010965000091
:010966000090
:01096700008F
:01096800008E
:01096900008D
:01096A00008C
:01096B00008B
:01096C00008A
:01096D000089
:01096E000088
:01096F000087
:010970000086
:010971000085
:010972000084
:010973000083
:010974000082
:010975000081
:010976000080
:01097700007F
:01097800007E
:01097900007D
:01097A00007C
:01097B00007B
:01097C00007A
:01097D000079
:01097E000078
:01097F000077
:010980000076
:010981000075
:010982000074
:010983000073
:010984000072
:010985000071
:010986000070
:01098700006F
:01098800006E
:01098900006D
:01098A00006C
:01098B00006B
:01098C00006A
:01098D000069
:01098E000068
:01098F000067
:010990000066
:010991000065
:010992000064
:010993000063
:010994000062
:010995000061
:010996000060
:01099700005F
:01099800005E
:01099900005D
:01099A00005C
:01099B00005B
:01099C00005A
:01099D000059
:01099E000058
:01099F000057
:0109A0000056
:0109A1000055
:0109A2000054
:0109A3000053
:0109A4000052
:0109A5000051
:0109A6000050
:0109A700004F
:0109A800004E
:0109A900004D
:0109AA00004C
:0109AB00004B
:0109AC00004A
:0109AD000049
:0109AE000048
:0109AF000047
:0109B0000046
:0109B1000045
:0109B2000044
:0109B3000043
:0109B4000042
:0109B5000041
:0109B6000040
:0109B700003F
:0109B800003E
:0109B900003D
:0109BA00003C
:0109BB00003B
:0109BC00003A
:0109BD000039
:0109BE000038
:0109BF000037
:0109C0000036
:0109C1000035
:0109C2000034
:0109C3000033
:0109C4000032
:0109C5000031
:0109C6000030
:0109C700002F
:0109C800002E
:0109C900002D
:0109CA00002C
:0109CB00002B
:0109CC00002A
:0109CD000029
:0109CE000028
:0109CF000027
:0109D0000026
:0109D1000025
:0109D2000024
:0109D3000023
:0109D4000022
:0109D5000021
:0109D6000020
:0109D700001F
:0109D800001E
:0109D900001D
:0109DA00001C
:0109DB00001B
:0109DC00001A
:0109DD000019
:0109DE000018
:0109DF000017
:0109E0000016
:0109E1000015
:0109E2000014
:0109E3000013
:0109E4000012
:0109E5000011
:0109E6000010
:0109E700000F
:0109E800000E
:0109E900000D
:0109EA00000C
:0109EB00000B
:0109EC00000A
:0109ED000009
:0109EE000008
:0109EF000007
:0109F0000006
:0109F1000005
:0109F2000004
:0109F3000003
:0109F4000002
:0109F5000001
:0109F6000000
:0109F70000FF
:0109F80000FE
:0109F90000FD
:0109FA0000FC
:0109FB0000FB
:0109FC0000FA
:0109FD0000F9
:0109FE0000F8
:0109FF0000F7
:010A000004F1
:010A010000F4
:010A020000F3
:010A030000F2
:010A040000F1
:010A050000F0
:010A060004EB
:010A070004EA
:010A080004E9
:010A090000EC
:010A0A0000EB
:010A0B0000EA
:010A0C0004E5
:010A0D0004E4
:010A0E0004E3
:010A0F0004E2
:010A100004E1
:010A110004E0
:010A120004DF
:010A130004DE
:010A140004DD
:010A150004DC
:010A160004DB
:010A170004DA
:010A180004D9
:010A190004D8
:010A1A0004D7
:010A1B0004D6
:010A1C0004D5
:010A1D0006D2
:010A1E0006D1
:010A1F0006D0
:010A200006CF
:010A210006CE
:010A220006CD
:010A230006CC
:010A240006CB
:010A250006CA
:010A260007C8
:010A270006C8
:010A280006C7
:010A290007C5
:010A2A0007C4
:010A2B0007C3
:010A2C0007C2
:010A2D0006C2
:010A2E0006C1
:010A2F0007BF
:010A300007BE
:010A310007BD
:010A320007BC
:010A330007BB
:010A340007BA
:010A350007B9
:010A360007B8
:010A370007B7
:010A380007B6
:010A390007B5
:010A3A0007B4
:010A3B0007B3
:010A3C0007B2
:010A3D0007B1
:010A3E0007B0
:010A3F0007AF
:010A400007AE
:010A410007AD
:010A420007AC
:010A430007AB
:010A440007AA
:010A450007A9
:010A460007A8
:010A470007A7
:010A480007A6
:010A490007A5
:010A4A0007A4
:010A4B0007A3
:010A4C0007A2
:010A4D0007A1
:010A4E0007A0
:010A4F00079F
:010A5000079E
:010A5100079D
:010A5200079C
:010A5300079B
:010A5400079A
:010A55000799
:010A56000798
:010A57000797
:010A58000499
:010A5900009C
:010A5A00009B
:010A5B00009A
:010A5C000099
:010A5D000098
:010A5E000097
:010A5F000096
:010A60000095
:010A61000094
:010A62000093
:010A63000092
:010A64000091
:010A65000090
:010A6600008F
:010A6700008E
:010A6800008D
:010A6900008C
:010A6A00008B
:010A6B00008A
:010A6C000089
:010A6D000088
:010A6E000087
:010A6F000086
:010A70000085
:010A71000084
:010A72000083
:010A73000082
:010A74000081
:010A75000080
:010A7600007F
:010A7700007E
:010A7800007D
:010A7900007C
:010A7A00007B
:010A7B00007A
:010A7C000079
:010A7D000078
:010A7E000077
:010A7F000076
:010A80000075
:010A81000074
:010A82000073
:010A83000072
:010A84000071
:010A85000070
:010A8600006F
:010A8700006E
:010A8800006D
:010A8900006C
:010A8A00006B
:010A8B00006A
:010A8C000069
:010A8D000068
:010A8E000067
:010A8F000066
:010A90000065
:010A91000064
:010A92000063
:010A93000062
:010A94000061
:010A95000060
:010A9600005F
:010A9700005E
:010A9800005D
:010A9900005C
:010A9A00005B
:010A9B00005A
:010A9C000059
:010A9D000058
:010A9E000057
:010A9F000056
:010AA0000055
:010AA1000054
:010AA2000053
:010AA3000052
:010AA4000051
:010AA5000050
:010AA600004F
:010AA700004E
:010AA800004D
:010AA900004C
:010AAA00004B
:010AAB00004A
:010AAC000049
:010AAD000048
:010AAE000047
:010AAF000046
:010AB0000045
:010AB1000044
:010AB2000043
:010AB3000042
:010AB4000041
:010AB5000040
:010AB600003F
:010AB700003E
:010AB800003D
:010AB900003C
:010ABA00003B
:010ABB00003A
:010ABC000039
:010ABD000038
:010ABE000037
:010ABF000036
:010AC0000035
:010AC1000034
:010AC2000033
:010AC3000032
:010AC4000031
:010AC5000030
:010AC600002F
:010AC700002E
:010AC800002D
:010AC900002C
:010ACA00002B
:010ACB00002A
:010ACC000029
:010ACD000028
:010ACE000027
:010ACF000026
:010AD0000025
:010AD1000024
:010AD2000023
:010AD3000022
:010AD4000021
:010AD5000020
:010AD600001F
:010AD700001E
:010AD800001D
:010AD900001C
:010ADA00001B
:010ADB00001A
:010ADC000019
:010ADD000018
:010ADE000017
:010ADF000016
:010AE0000015
:010AE1000014
:010AE2000013
:010AE3000012
:010AE4000011
:010AE5000010
:010AE600000F
:010AE700000E
:010AE800000D
:010AE900000C
:010AEA00000B
:010AEB00000A
:010AEC000009
:010AED000008
:010AEE000007
:010AEF000006
:010AF0000005
:010AF1000004
:010AF2000003
:010AF3000002
:010AF4000001
:010AF5000000
:010AF60000FF
:010AF70000FE
:010AF80000FD
:010AF90000FC
:010AFA0000FB
:010AFB0000FA
:010AFC0000F9
:010AFD0000F8
:010AFE0000F7
:010AFF0000F6
:010B000000F4
:010B010000F3
:010B020000F2
:010B030000F1
:010B040000F0
:010B050000EF
:010B060000EE
:010B070000ED
:010B080000EC
:010B090000EB
:010B0A0000EA
:010B0B0000E9
:010B0C0000E8
:010B0D0000E7
:010B0E0000E6
:010B0F0000E5
:010B100000E4
:010B110000E3
:010B120000E2
:010B130000E1
:010B140000E0
:010B150000DF
:010B160000DE
:010B170000DD
:010B180000DC
:010B190000DB
:010B1A0000DA
:010B1B0000D9
:010B1C0000D8
:010B1D0000D7
:010B1E0000D6
:010B1F0000D5
:010B200000D4
:010B210000D3
:010B220000D2
:010B230000D1
:010B240000D0
:010B250000CF
:010B260000CE
:010B270000CD
:010B280000CC
:010B290000CB
:010B2A0000CA
:010B2B0000C9
:010B2C0000C8
:010B2D0000C7
:010B2E0000C6
:010B2F0000C5
:010B300000C4
:010B310000C3
:010B320000C2
:010B330000C1
:010B340000C0
:010B350000BF
:010B360000BE
:010B370000BD
:010B380000BC
:010B390000BB
:010B3A0000BA
:010B3B0000B9
:010B3C0000B8
:010B3D0000B7
:010B3E0000B6
:010B3F0000B5
:010B400000B4
:010B410000B3
:010B420000B2
:010B430000B1
:010B440000B0
:010B450000AF
:010B460004AA
:010B470004A9
:010B480004A8
:010B490000AB
:010B4A0000AA
:010B4B0000A9
:010B4C0004A4
:010B4D0004A3
:010B4E0004A2
:010B4F0004A1
:010B500004A0
:010B5100049F
:010B5200049E
:010B5300049D
:010B5400049C
:010B5500049B
:010B5600049A
:010B57000499
:010B58000498
:010B59000497
:010B5A000496
:010B5B000495
:010B5C000494
:010B5D000691
:010B5E000690
:010B5F00068F
:010B6000068E
:010B6100068D
:010B6200068C
:010B6300068B
:010B6400068A
:010B65000689
:010B66000787
:010B67000687
:010B68000686
:010B69000784
:010B6A000783
:010B6B000782
:010B6C000781
:010B6D000681
:010B6E000680
:010B6F00077E
:010B7000077D
:010B7100077C
:010B7200077B
:010B7300077A
:010B74000779
:010B75000778
:010B76000777
:010B77000776
:010B78000775
:010B79000774
:010B7A000773
:010B7B000772
:010B7C000771
:010B7D000770
:010B7E00076F
:010B7F00076E
:010B8000076D
:010B8100076C
:010B8200076B
:010B8300076A
:010B84000769
:010B85000768
:010B86000767
:010B87000766
:010B88000765
:010B89000764
:010B8A000763
:010B8B000762
:010B8C000761
:010B8D000760
:010B8E00075F
:010B8F00075E
:010B9000075D
:010B9100075C
:010B9200075B
:010B9300075A
:010B94000759
:010B95000758
:010B96000757
:010B97000756
:010B98000656
:010B9900005B
:010B9A00005A
:010B9B000059
:010B9C000058
:010B9D000057
:010B9E000056
:010B9F000055
:010BA0000054
:010BA1000053
:010BA2000052
:010BA3000051
:010BA4000050
:010BA500004F
:010BA600004E
:010BA700004D
:010BA800004C
:010BA900004B
:010BAA00004A
:010BAB000049
:010BAC000048
:010BAD000047
:010BAE000046
:010BAF000045
:010BB0000044
:010BB1000043
:010BB2000042
:010BB3000041
:010BB4000040
:010BB500003F
:010BB600003E
:010BB700003D
:010BB800003C
:010BB900003B
:010BBA00003A
:010BBB000039
:010BBC000038
:010BBD000037
:010BBE000036
:010BBF000035
:010BC0000034
:010BC1000033
:010BC2000032
:010BC3000031
:010BC4000030
:010BC500002F
:010BC600002E
:010BC700002D
:010BC800002C
:010BC900002B
:010BCA00002A
:010BCB000029
:010BCC000028
:010BCD000027
:010BCE000026
:010BCF000025
:010BD0000024
:010BD1000023
:010BD2000022
:010BD3000021
:010BD4000020
:010BD500001F
:010BD600001E
:010BD700001D
:010BD800001C
:010BD900001B
:010BDA00001A
:010BDB000019
:010BDC000018
:010BDD000017
:010BDE000016
:010BDF000015
:010BE0000014
:010BE1000013
:010BE2000012
:010BE3000011
:010BE4000010
:010BE500000F
:010BE600000E
:010BE700000D
:010BE800000C
:010BE900000B
:010BEA00000A
:010BEB000009
:010BEC000008
:010BED000007
:010BEE000006
:010BEF000005
:010BF0000004
:010BF1000003
:010BF2000002
:010BF3000001
:010BF4000000
:010BF50000FF
:010BF60000FE
:010BF70000FD
:010BF80000FC
:010BF90000FB
:010BFA0000FA
:010BFB0000F9
:010BFC0000F8
:010BFD0000F7
:010BFE0000F6
:010BFF0000F5
:010C000000F3
:010C010000F2
:010C020000F1
:010C030000F0
:010C040000EF
:010C050000EE
:010C060000ED
:010C070000EC
:010C080000EB
:010C090000EA
:010C0A0000E9
:010C0B0000E8
:010C0C0000E7
:010C0D0000E6
:010C0E0000E5
:010C0F0000E4
:010C100000E3
:010C110000E2
:010C120000E1
:010C130000E0
:010C140000DF
:010C150000DE
:010C160000DD
:010C170000DC
:010C180000DB
:010C190000DA
:010C1A0000D9
:010C1B0000D8
:010C1C0000D7
:010C1D0000D6
:010C1E0000D5
:010C1F0000D4
:010C200000D3
:010C210000D2
:010C220000D1
:010C230000D0
:010C240000CF
:010C250000CE
:010C260000CD
:010C270000CC
:010C280000CB
:010C290000CA
:010C2A0000C9
:010C2B0000C8
:010C2C0000C7
:010C2D0000C6
:010C2E0000C5
:010C2F0000C4
:010C300000C3
:010C310000C2
:010C320000C1
:010C330000C0
:010C340000BF
:010C350000BE
:010C360000BD
:010C370000BC
:010C380000BB
:010C390000BA
:010C3A0000B9
:010C3B0000B8
:010C3C0000B7
:010C3D0000B6
:010C3E0000B5
:010C3F0000B4
:010C400000B3
:010C410000B2
:010C420000B1
:010C430000B0
:010C440000AF
:010C450000AE
:010C460000AD
:010C470000AC
:010C480000AB
:010C490000AA
:010C4A0000A9
:010C4B0000A8
:010C4C0000A7
:010C4D0000A6
:010C4E0000A5
:010C4F0000A4
:010C500000A3
:010C510000A2
:010C520000A1
:010C530000A0
:010C5400009F
:010C5500009E
:010C5600009D
:010C5700009C
:010C5800009B
:010C5900009A
:010C5A000099
:010C5B000098
:010C5C000097
:010C5D000096
:010C5E000095
:010C5F000094
:010C60000093
:010C61000092
:010C62000091
:010C63000090
:010C6400008F
:010C6500008E
:010C6600008D
:010C6700008C
:010C6800008B
:010C6900008A
:010C6A000089
:010C6B000088
:010C6C000087
:010C6D000086
:010C6E000085
:010C6F000084
:010C70000083
:010C71000082
:010C72000081
:010C73000080
:010C7400007F
:010C7500007E
:010C7600007D
:010C7700007C
:010C7800007B
:010C7900007A
:010C7A000079
:010C7B000078
:010C7C000077
:010C7D000076
:010C7E000075
:010C7F000074
:010C80000073
:010C81000072
:010C82000071
:010C83000070
:010C8400006F
:010C8500006E
:010C8600006D
:010C87000468
:010C88000467
:010C89000466
:010C8A000069
:010C8B000068
:010C8C000067
:010C8D000066
:010C8E000461
:010C8F000460
:010C9000045F
:010C9100045E
:010C9200045D
:010C9300045C
:010C9400045B
:010C9500045A
:010C96000459
:010C97000458
:010C98000457
:010C99000456
:010C9A000455
:010C9B000454
:010C9C000453
:010C9D000650
:010C9E00064F
:010C9F00064E
:010CA000064D
:010CA100064C
:010CA200064B
:010CA300064A
:010CA4000649
:010CA5000648
:010CA6000647
:010CA7000646
:010CA8000645
:010CA9000743
:010CAA000742
:010CAB000741
:010CAC000740
:010CAD000640
:010CAE00063F
:010CAF00073D
:010CB000073C
:010CB100073B
:010CB200073A
:010CB3000739
:010CB4000738
:010CB5000737
:010CB6000736
:010CB7000735
:010CB8000734
:010CB9000733
:010CBA000732
:010CBB000731
:010CBC000730
:010CBD00072F
:010CBE00072E
:010CBF00072D
:010CC000072C
:010CC100072B
:010CC200072A
:010CC3000729
:010CC4000728
:010CC5000727
:010CC6000726
:010CC7000725
:010CC8000724
:010CC9000723
:010CCA000722
:010CCB000721
:010CCC000720
:010CCD00071F
:010CCE00071E
:010CCF00071D
:010CD000071C
:010CD100071B
:010CD200071A
:010CD3000719
:010CD4000718
:010CD5000717
:010CD6000716
:010CD7000715
:010CD8000714
:010CD900001A
:010CDA000019
:010CDB000018
:010CDC000017
:010CDD000016
:010CDE000015
:010CDF000014
:010CE0000013
:010CE1000012
:010CE2000011
:010CE3000010
:010CE400000F
:010CE500000E
:010CE600000D
:010CE700000C
:010CE800000B
:010CE900000A
:010CEA000009
:010CEB000008
:010CEC000007
:010CED000006
:010CEE000005
:010CEF000004
:010CF0000003
:010CF1000002
:010CF2000001
:010CF3000000
:010CF40000FF
:010CF50000FE
:010CF60000FD
:010CF70000FC
:010CF80000FB
:010CF90000FA
:010CFA0000F9
:010CFB0000F8
:010CFC0000F7
:010CFD0000F6
:010CFE0000F5
:010CFF0000F4
:010D000000F2
:010D010000F1
:010D020000F0
:010D030000EF
:010D040000EE
:010D050000ED
:010D060000EC
:010D070000EB
:010D080000EA
:010D090000E9
:010D0A0000E8
:010D0B0000E7
:010D0C0000E6
:010D0D0000E5
:010D0E0000E4
:010D0F0000E3
:010D100000E2
:010D110000E1
:010D120000E0
:010D130000DF
:010D140000DE
:010D150000DD
:010D160000DC
:010D170000DB
:010D180000DA
:010D190000D9
:010D1A0000D8
:010D1B0000D7
:010D1C0000D6
:010D1D0000D5
:010D1E0000D4
:010D1F0000D3
:010D200000D2
:010D210000D1
:010D220000D0
:010D230000CF
:010D240000CE
:010D250000CD
:010D260000CC
:010D270000CB
:010D280000CA
:010D290000C9
:010D2A0000C8
:010D2B0000C7
:010D2C0000C6
:010D2D0000C5
:010D2E0000C4
:010D2F0000C3
:010D300000C2
:010D310000C1
:010D320000C0
:010D330000BF
:010D340000BE
:010D350000BD
:010D360000BC
:010D370000BB
:010D380000BA
:010D390000B9
:010D3A0000B8
:010D3B0000B7
:010D3C0000B6
:010D3D0000B5
:010D3E0000B4
:010D3F0000B3
:010D400000B2
:010D410000B1
:010D420000B0
:010D430000AF
:010D440000AE
:010D450000AD
:010D460000AC
:010D470000AB
:010D480000AA
:010D490000A9
:010D4A0000A8
:010D4B0000A7
:010D4C0000A6
:010D4D0000A5
:010D4E0000A4
:010D4F0000A3
:010D500000A2
:010D510000A1
:010D520000A0
:010D5300009F
:010D5400009E
:010D5500009D
:010D5600009C
:010D5700009B
:010D5800009A
:010D59000099
:010D5A000098
:010D5B000097
:010D5C000096
:010D5D000095
:010D5E000094
:010D5F000093
:010D60000092
:010D61000091
:010D62000090
:010D6300008F
:010D6400008E
:010D6500008D
:010D6600008C
:010D6700008B
:010D6800008A
:010D69000089
:010D6A000088
:010D6B000087
:010D6C000086
:010D6D000085
:010D6E000084
:010D6F000083
:010D70000082
:010D71000081
:010D72000080
:010D7300007F
:010D7400007E
:010D7500007D
:010D7600007C
:010D7700007B
:010D7800007A
:010D79000079
:010D7A000078
:010D7B000077
:010D7C000076
:010D7D000075
:010D7E000074
:010D7F000073
:010D80000072
:010D81000071
:010D82000070
:010D8300006F
:010D8400006E
:010D8500006D
:010D8600006C
:010D8700006B
:010D8800006A
:010D89000069
:010D8A000068
:010D8B000067
:010D8C000066
:010D8D000065
:010D8E000064
:010D8F000063
:010D90000062
:010D91000061
:010D92000060
:010D9300005F
:010D9400005E
:010D9500005D
:010D9600005C
:010D9700005B
:010D9800005A
:010D99000059
:010D9A000058
:010D9B000057
:010D9C000056
:010D9D000055
:010D9E000054
:010D9F000053
:010DA0000052
:010DA1000051
:010DA2000050
:010DA300004F
:010DA400004E
:010DA500004D
:010DA600004C
:010DA700004B
:010DA800004A
:010DA9000049
:010DAA000048
:010DAB000047
:010DAC000046
:010DAD000045
:010DAE000044
:010DAF000043
:010DB0000042
:010DB1000041
:010DB2000040
:010DB300003F
:010DB400003E
:010DB500003D
:010DB600003C
:010DB700003B
:010DB800003A
:010DB9000039
:010DBA000038
:010DBB000037
:010DBC000036
:010DBD000035
:010DBE000034
:010DBF000033
:010DC0000032
:010DC1000031
:010DC2000030
:010DC300002F
:010DC400002E
:010DC500002D
:010DC600002C
:010DC700002B
:010DC8000426
:010DC9000425
:010DCA000424
:010DCB000027
:010DCC000026
:010DCD000025
:010DCE000420
:010DCF00041F
:010DD000041E
:010DD100041D
:010DD200041C
:010DD300041B
:010DD400041A
:010DD5000419
:010DD6000418
:010DD7000417
:010DD8000416
:010DD9000415
:010DDA000414
:010DDB000413
:010DDC000412
:010DDD00060F
:010DDE00060E
:010DDF00060D
:010DE000060C
:010DE100060B
:010DE200060A
:010DE3000609
:010DE4000608
:010DE5000607
:010DE6000606
:010DE7000605
:010DE8000604
:010DE9000702
:010DEA000701
:010DEB000700
:010DEC000600
:010DED0006FF
:010DEE0006FE
:010DEF0007FC
:010DF00007FB
:010DF10007FA
:010DF20007F9
:010DF30007F8
:010DF40007F7
:010DF50007F6
:010DF60007F5
:010DF70007F4
:010DF80007F3
:010DF90007F2
:010DFA0007F1
:010DFB0007F0
:010DFC0007EF
:010DFD0007EE
:010DFE0007ED
:010DFF0007EC
:010E000007EA
:010E010007E9
:010E020007E8
:010E030007E7
:010E040007E6
:010E050007E5
:010E060007E4
:010E070007E3
:010E080007E2
:010E090007E1
:010E0A0007E0
:010E0B0007DF
:010E0C0007DE
:010E0D0007DD
:010E0E0007DC
:010E0F0007DB
:010E100007DA
:010E110007D9
:010E120007D8
:010E130007D7
:010E140007D6
:010E150007D5
:010E160007D4
:010E170007D3
:010E180007D2
:010E190000D8
:010E1A0000D7
:010E1B0000D6
:010E1C0000D5
:010E1D0000D4
:010E1E0000D3
:010E1F0000D2
:010E200000D1
:010E210000D0
:010E220000CF
:010E230000CE
:010E240000CD
:010E250000CC
:010E260000CB
:010E270000CA
:010E280000C9
:010E290000C8
:010E2A0000C7
:010E2B0000C6
:010E2C0000C5
:010E2D0000C4
:010E2E0000C3
:010E2F0000C2
:010E300000C1
:010E310000C0
:010E320000BF
:010E330000BE
:010E340000BD
:010E350000BC
:010E360000BB
:010E370000BA
:010E380000B9
:010E390000B8
:010E3A0000B7
:010E3B0000B6
:010E3C0000B5
:010E3D0000B4
:010E3E0000B3
:010E3F0000B2
:010E400000B1
:010E410000B0
:010E420000AF
:010E430000AE
:010E440000AD
:010E450000AC
:010E460000AB
:010E470000AA
:010E480000A9
:010E490000A8
:010E4A0000A7
:010E4B0000A6
:010E4C0000A5
:010E4D0000A4
:010E4E0000A3
:010E4F0000A2
:010E500000A1
:010E510000A0
:010E5200009F
:010E5300009E
:010E5400009D
:010E5500009C
:010E5600009B
:010E5700009A
:010E58000099
:010E59000098
:010E5A000097
:010E5B000096
:010E5C000095
:010E5D000094
:010E5E000093
:010E5F000092
:010E60000091
:010E61000090
:010E6200008F
:010E6300008E
:010E6400008D
:010E6500008C
:010E6600008B
:010E6700008A
:010E68000089
:010E69000088
:010E6A000087
:010E6B000086
:010E6C000085
:010E6D000084
:010E6E000083
:010E6F000082
:010E70000081
:010E71000080
:010E7200007F
:010E7300007E
:010E7400007D
:010E7500007C
:010E7600007B
:010E7700007A
:010E78000079
:010E79000078
:010E7A000077
:010E7B000076
:010E7C000075
:010E7D000074
:010E7E000073
:010E7F000072
:010E80000071
:010E81000070
:010E8200006F
:010E8300006E
:010E8400006D
:010E8500006C
:010E8600006B
:010E8700006A
:010E88000069
:010E89000068
:010E8A000067
:010E8B000066
:010E8C000065
:010E8D000064
:010E8E000063
:010E8F000062
:010E90000061
:010E91000060
:010E9200005F
:010E9300005E
:010E9400005D
:010E9500005C
:010E9600005B
:010E9700005A
:010E98000059
:010E99000058
:010E9A000057
:010E9B000056
:010E9C000055
:010E9D000054
:010E9E000053
:010E9F000052
:010EA0000051
:010EA1000050
:010EA200004F
:010EA300004E
:010EA400004D
:010EA500004C
:010EA600004B
:010EA700004A
:010EA8000049
:010EA9000048
:010EAA000047
:010EAB000046
:010EAC000045
:010EAD000044
:010EAE000043
:010EAF000042
:010EB0000041
:010EB1000040
:010EB200003F
:010EB300003E
:010EB400003D
:010EB500003C
:010EB600003B
:010EB700003A
:010EB8000039
:010EB9000038
:010EBA000037
:010EBB000036
:010EBC000035
:010EBD000034
:010EBE000033
:010EBF000032
:010EC0000031
:010EC1000030
:010EC200002F
:010EC300002E
:010EC400002D
:010EC500002C
:010EC600002B
:010EC700002A
:010EC8000029
:010EC9000028
:010ECA000027
:010ECB000026
:010ECC000025
:010ECD000024
:010ECE000023
:010ECF000022
:010ED0000021
:010ED1000020
:010ED200001F
:010ED300001E
:010ED400001D
:010ED500001C
:010ED600001B
:010ED700001A
:010ED8000019
:010ED9000018
:010EDA000017
:010EDB000016
:010EDC000015
:010EDD000014
:010EDE000013
:010EDF000012
:010EE0000011
:010EE1000010
:010EE200000F
:010EE300000E
:010EE400000D
:010EE500000C
:010EE600000B
:010EE700000A
:010EE8000009
:010EE9000008
:010EEA000007
:010EEB000006
:010EEC000005
:010EED000004
:010EEE000003
:010EEF000002
:010EF0000001
:010EF1000000
:010EF20000FF
:010EF30000FE
:010EF40000FD
:010EF50000FC
:010EF60000FB
:010EF70000FA
:010EF80000F9
:010EF90000F8
:010EFA0000F7
:010EFB0000F6
:010EFC0000F5
:010EFD0000F4
:010EFE0000F3
:010EFF0000F2
:010F000000F0
:010F010000EF
:010F020000EE
:010F030000ED
:010F040000EC
:010F050000EB
:010F060000EA
:010F070000E9
:010F080004E4
:010F090004E3
:010F0A0004E2
:010F0B0000E5
:010F0C0000E4
:010F0D0000E3
:010F0E0004DE
:010F0F0004DD
:010F100004DC
:010F110004DB
:010F120004DA
:010F130004D9
:010F140004D8
:010F150004D7
:010F160004D6
:010F170004D5
:010F180004D4
:010F190004D3
:010F1A0004D2
:010F1B0004D1
:010F1C0004D0
:010F1D0004CF
:010F1E0006CC
:010F1F0006CB
:010F200006CA
:010F210006C9
:010F220006C8
:010F230006C7
:010F240006C6
:010F250006C5
:010F260006C4
:010F270006C3
:010F280006C2
:010F290007C0
:010F2A0007BF
:010F2B0007BE
:010F2C0006BE
:010F2D0006BD
:010F2E0006BC
:010F2F0006BB
:010F300007B9
:010F310007B8
:010F320007B7
:010F330007B6
:010F340007B5
:010F350007B4
:010F360007B3
:010F370007B2
:010F380007B1
:010F390007B0
:010F3A0007AF
:010F3B0007AE
:010F3C0007AD
:010F3D0007AC
:010F3E0007AB
:010F3F0007AA
:010F400007A9
:010F410007A8
:010F420007A7
:010F430007A6
:010F440007A5
:010F450007A4
:010F460007A3
:010F470007A2
:010F480007A1
:010F490007A0
:010F4A00079F
:010F4B00079E
:010F4C00079D
:010F4D00079C
:010F4E00079B
:010F4F00079A
:010F50000799
:010F51000798
:010F52000797
:010F53000796
:010F54000795
:010F55000794
:010F56000793
:010F57000792
:010F58000791
:010F59000097
:010F5A000096
:010F5B000095
:010F5C000094
:010F5D000093
:010F5E000092
:010F5F000091
:010F60000090
:010F6100008F
:010F6200008E
:010F6300008D
:010F6400008C
:010F6500008B
:010F6600008A
:010F67000089
:010F68000088
:010F69000087
:010F6A000086
:010F6B000085
:010F6C000084
:010F6D000083
:010F6E000082
:010F6F000081
:010F70000080
:010F7100007F
:010F7200007E
:010F7300007D
:010F7400007C
:010F7500007B
:010F7600007A
:010F77000079
:010F78000078
:010F79000077
:010F7A000076
:010F7B000075
:010F7C000074
:010F7D000073
:010F7E000072
:010F7F000071
:010F80000070
:010F8100006F
:010F8200006E
:010F8300006D
:010F8400006C
:010F8500006B
:010F8600006A
:010F87000069
:010F88000068
:010F89000067
:010F8A000066
:010F8B000065
:010F8C000064
:010F8D000063
:010F8E000062
:010F8F000061
:010F90000060
:010F9100005F
:010F9200005E
:010F9300005D
:010F9400005C
:010F9500005B
:010F9600005A
:010F97000059
:010F98000058
:010F99000057
:010F9A000056
:010F9B000055
:010F9C000054
:010F9D000053
:010F9E000052
:010F9F000051
:010FA0000050
:010FA100004F
:010FA200004E
:010FA300004D
:010FA400004C
:010FA500004B
:010FA600004A
:010FA7000049
:010FA8000048
:010FA9000047
:010FAA000046
:010FAB000045
:010FAC000044
:010FAD000043
:010FAE000042
:010FAF000041
:010FB0000040
:010FB100003F
:010FB200003E
:010FB300003D
:010FB400003C
:010FB500003B
:010FB600003A
:010FB7000039
:010FB8000038
:010FB9000037
:010FBA000036
:010FBB000035
:010FBC000034
:010FBD000033
:010FBE000032
:010FBF000031
:010FC0000030
:010FC100002F
:010FC200002E
:010FC300002D
:010FC400002C
:010FC500002B
:010FC600002A
:010FC7000029
:010FC8000028
:010FC9000027
:010FCA000026
:010FCB000025
:010FCC000024
:010FCD000023
:010FCE000022
:010FCF000021
:010FD0000020
:010FD100001F
:010FD200001E
:010FD300001D
:010FD400001C
:010FD500001B
:010FD600001A
:010FD7000019
:010FD8000018
:010FD9000017
:010FDA000016
:010FDB000015
:010FDC000014
:010FDD000013
:010FDE000012
:010FDF000011
:010FE0000010
:010FE100000F
:010FE200000E
:010FE300000D
:010FE400000C
:010FE500000B
:010FE600000A
:010FE7000009
:010FE8000008
:010FE9000007
:010FEA000006
:010FEB000005
:010FEC000004
:010FED000003
:010FEE000002
:010FEF000001
:010FF0000000
:010FF10000FF
:010FF20000FE
:010FF30000FD
:010FF40000FC
:010FF50000FB
:010FF60000FA
:010FF70000F9
:010FF80000F8
:010FF90000F7
:010FFA0000F6
:010FFB0000F5
:010FFC0000F4
:010FFD0000F3
:010FFE0000F2
:010FFF0000F1
:0110000000EF
:0110010000EE
:0110020000ED
:0110030000EC
:0110040000EB
:0110050000EA
:0110060000E9
:0110070000E8
:0110080000E7
:0110090000E6
:01100A0000E5
:01100B0000E4
:01100C0000E3
:01100D0000E2
:01100E0000E1
:01100F0000E0
:0110100000DF
:0110110000DE
:0110120000DD
:0110130000DC
:0110140000DB
:0110150000DA
:0110160000D9
:0110170000D8
:0110180000D7
:0110190000D6
:01101A0000D5
:01101B0000D4
:01101C0000D3
:01101D0000D2
:01101E0000D1
:01101F0000D0
:0110200000CF
:0110210000CE
:0110220000CD
:0110230000CC
:0110240000CB
:0110250000CA
:0110260000C9
:0110270000C8
:0110280000C7
:0110290000C6
:01102A0000C5
:01102B0000C4
:01102C0000C3
:01102D0000C2
:01102E0000C1
:01102F0000C0
:0110300000BF
:0110310000BE
:0110320000BD
:0110330000BC
:0110340000BB
:0110350000BA
:0110360000B9
:0110370000B8
:0110380000B7
:0110390000B6
:01103A0000B5
:01103B0000B4
:01103C0000B3
:01103D0000B2
:01103E0000B1
:01103F0000B0
:0110400000AF
:0110410000AE
:0110420000AD
:0110430000AC
:0110440000AB
:0110450000AA
:0110460000A9
:0110470000A8
:0110480000A7
:0110490004A2
:01104A0004A1
:01104B0004A0
:01104C0000A3
:01104D0000A2
:01104E0000A1
:01104F00049C
:01105000049B
:01105100049A
:011052000499
:011053000498
:011054000497
:011055000496
:011056000495
:011057000494
:011058000493
:011059000492
:01105A000491
:01105B000490
:01105C00048F
:01105D00048E
:01105E00068B
:01105F00068A
:011060000689
:011061000688
:011062000687
:011063000686
:011064000685
:011065000684
:011066000683
:011067000682
:011068000681
:01106900077F
:01106A00077E
:01106B00077D
:01106C00067D
:01106D00067C
:01106E00067B
:01106F000779
:011070000778
:011071000777
:011072000776
:011073000775
:011074000774
:011075000773
:011076000772
:011077000771
:011078000770
:01107900076F
:01107A00076E
:01107B00076D
:01107C00076C
:01107D00076B
:01107E00076A
:01107F000769
:011080000768
:011081000767
:011082000766
:011083000765
:011084000764
:011085000763
:011086000762
:011087000761
:011088000760
:01108900075F
:01108A00075E
:01108B00075D
:01108C00075C
:01108D00075B
:01108E00075A
:01108F000759
:011090000758
:011091000757
:011092000756
:011093000755
:011094000754
:011095000753
:011096000752
:011097000751
:011098000750
:011099000056
:01109A000055
:01109B000054
:01109C000053
:01109D000052
:01109E000051
:01109F000050
:0110A000004F
:0110A100004E
:0110A200004D
:0110A300004C
:0110A400004B
:0110A500004A
:0110A6000049
:0110A7000048
:0110A8000047
:0110A9000046
:0110AA000045
:0110AB000044
:0110AC000043
:0110AD000042
:0110AE000041
:0110AF000040
:0110B000003F
:0110B100003E
:0110B200003D
:0110B300003C
:0110B400003B
:0110B500003A
:0110B6000039
:0110B7000038
:0110B8000037
:0110B9000036
:0110BA000035
:0110BB000034
:0110BC000033
:0110BD000032
:0110BE000031
:0110BF000030
:0110C000002F
:0110C100002E
:0110C200002D
:0110C300002C
:0110C400002B
:0110C500002A
:0110C6000029
:0110C7000028
:0110C8000027
:0110C9000026
:0110CA000025
:0110CB000024
:0110CC000023
:0110CD000022
:0110CE000021
:0110CF000020
:0110D000001F
:0110D100001E
:0110D200001D
:0110D300001C
:0110D400001B
:0110D500001A
:0110D6000019
:0110D7000018
:0110D8000017
:0110D9000016
:0110DA000015
:0110DB000014
:0110DC000013
:0110DD000012
:0110DE000011
:0110DF000010
:0110E000000F
:0110E100000E
:0110E200000D
:0110E300000C
:0110E400000B
:0110E500000A
:0110E6000009
:0110E7000008
:0110E8000007
:0110E9000006
:0110EA000005
:0110EB000004
:0110EC000003
:0110ED000002
:0110EE000001
:0110EF000000
:0110F00000FF
:0110F10000FE
:0110F20000FD
:0110F30000FC
:0110F40000FB
:0110F50000FA
:0110F60000F9
:0110F70000F8
:0110F80000F7
:0110F90000F6
:0110FA0000F5
:0110FB0000F4
:0110FC0000F3
:0110FD0000F2
:0110FE0000F1
:0110FF0000F0
:0111000000EE
:0111010000ED
:0111020000EC
:0111030000EB
:0111040000EA
:0111050000E9
:0111060000E8
:0111070000E7
:0111080000E6
:0111090000E5
:01110A0000E4
:01110B0000E3
:01110C0000E2
:01110D0000E1
:01110E0000E0
:01110F0000DF
:0111100000DE
:0111110000DD
:0111120000DC
:0111130000DB
:0111140000DA
:0111150000D9
:0111160000D8
:0111170000D7
:0111180000D6
:0111190000D5
:01111A0000D4
:01111B0000D3
:01111C0000D2
:01111D0000D1
:01111E0000D0
:01111F0000CF
:0111200000CE
:0111210000CD
:0111220000CC
:0111230000CB
:0111240000CA
:0111250000C9
:0111260000C8
:0111270000C7
:0111280000C6
:0111290000C5
:01112A0000C4
:01112B0000C3
:01112C0000C2
:01112D0000C1
:01112E0000C0
:01112F0000BF
:0111300000BE
:0111310000BD
:0111320000BC
:0111330000BB
:0111340000BA
:0111350000B9
:0111360000B8
:0111370000B7
:0111380000B6
:0111390000B5
:01113A0000B4
:01113B0000B3
:01113C0000B2
:01113D0000B1
:01113E0000B0
:01113F0000AF
:0111400000AE
:0111410000AD
:0111420000AC
:0111430000AB
:0111440000AA
:0111450000A9
:0111460000A8
:0111470000A7
:0111480000A6
:0111490000A5
:01114A0000A4
:01114B0000A3
:01114C0000A2
:01114D0000A1
:01114E0000A0
:01114F00009F
:01115000009E
:01115100009D
:01115200009C
:01115300009B
:01115400009A
:011155000099
:011156000098
:011157000097
:011158000096
:011159000095
:01115A000094
:01115B000093
:01115C000092
:01115D000091
:01115E000090
:01115F00008F
:01116000008E
:01116100008D
:01116200008C
:01116300008B
:01116400008A
:011165000089
:011166000088
:011167000087
:011168000086
:011169000085
:01116A000084
:01116B000083
:01116C000082
:01116D000081
:01116E000080
:01116F00007F
:01117000007E
:01117100007D
:01117200007C
:01117300007B
:01117400007A
:011175000079
:011176000078
:011177000077
:011178000076
:011179000075
:01117A000074
:01117B000073
:01117C000072
:01117D000071
:01117E000070
:01117F00006F
:01118000006E
:01118100006D
:01118200006C
:01118300006B
:01118400006A
:011185000069
:011186000068
:011187000067
:011188000066
:011189000065
:01118A000460
:01118B00045F
:01118C000062
:01118D000061
:01118E000060
:01118F00045B
:01119000045A
:011191000459
:011192000458
:011193000457
:011194000456
:011195000455
:011196000454
:011197000453
:011198000452
:011199000451
:01119A000450
:01119B00044F
:01119C00044E
:01119D00064B
:01119E00064A
:01119F000649
:0111A0000648
:0111A1000647
:0111A2000646
:0111A3000645
:0111A4000644
:0111A5000643
:0111A6000642
:0111A7000641
:0111A8000640
:0111A900073E
:0111AA00073D
:0111AB00073C
:0111AC00063C
:0111AD00063B
:0111AE00063A
:0111AF000738
:0111B0000737
:0111B1000736
:0111B2000735
:0111B3000734
:0111B4000733
:0111B5000732
:0111B6000731
:0111B7000730
:0111B800072F
:0111B900072E
:0111BA00072D
:0111BB00072C
:0111BC00072B
:0111BD00072A
:0111BE000729
:0111BF000728
:0111C0000727
:0111C1000726
:0111C2000725
:0111C3000724
:0111C4000723
:0111C5000722
:0111C6000721
:0111C7000720
:0111C800071F
:0111C900071E
:0111CA00071D
:0111CB00071C
:0111CC00071B
:0111CD00071A
:0111CE000719
:0111CF000718
:0111D0000717
:0111D1000716
:0111D2000715
:0111D3000714
:0111D4000713
:0111D5000712
:0111D6000711
:0111D7000710
:0111D800070F
:0111D9000015
:0111DA000014
